{
  "contractName": "Telecom",
  "abi": [
    {
      "inputs": [
        {
          "internalType": "address",
          "name": "",
          "type": "address"
        }
      ],
      "name": "customers",
      "outputs": [
        {
          "internalType": "uint256",
          "name": "customerId",
          "type": "uint256"
        },
        {
          "internalType": "uint256",
          "name": "lastBillDate",
          "type": "uint256"
        },
        {
          "internalType": "uint256",
          "name": "lastBillAmount",
          "type": "uint256"
        }
      ],
      "stateMutability": "view",
      "type": "function",
      "constant": true
    },
    {
      "inputs": [
        {
          "internalType": "uint256",
          "name": "_customerId",
          "type": "uint256"
        },
        {
          "internalType": "uint256",
          "name": "_billDate",
          "type": "uint256"
        },
        {
          "internalType": "uint256",
          "name": "_billAmount",
          "type": "uint256"
        }
      ],
      "name": "submitBill",
      "outputs": [],
      "stateMutability": "nonpayable",
      "type": "function"
    },
    {
      "inputs": [],
      "name": "getCustomerLastBill",
      "outputs": [
        {
          "internalType": "uint256",
          "name": "customerId",
          "type": "uint256"
        },
        {
          "internalType": "uint256",
          "name": "lastBillDate",
          "type": "uint256"
        },
        {
          "internalType": "uint256",
          "name": "lastBillAmount",
          "type": "uint256"
        }
      ],
      "stateMutability": "view",
      "type": "function",
      "constant": true
    }
  ],
  "bytecode": "0x608060405234801561001057600080fd5b506105a5806100206000396000f3fe608060405234801561001057600080fd5b50600436106100415760003560e01c8063336989ae14610046578063be9e03c214610078578063dfacf7f014610098575b600080fd5b610060600480360381019061005b91906102d2565b6100b4565b60405161006f93929190610318565b60405180910390f35b6100806100de565b60405161008f93929190610318565b60405180910390f35b6100b260048036038101906100ad919061037b565b610186565b005b60006020528060005260406000206000915090508060000154908060010154908060020154905083565b6000806000806000803373ffffffffffffffffffffffffffffffffffffffff1673ffffffffffffffffffffffffffffffffffffffff1681526020019081526020016000209050600081600001541161016b576040517f08c379a00000000000000000000000000000000000000000000000000000000081526004016101629061042b565b60405180910390fd5b80600001548160010154826002015493509350935050909192565b600083116101c9576040517f08c379a00000000000000000000000000000000000000000000000000000000081526004016101c0906104bd565b60405180910390fd5b6000811161020c576040517f08c379a00000000000000000000000000000000000000000000000000000000081526004016102039061054f565b60405180910390fd5b60008060003373ffffffffffffffffffffffffffffffffffffffff1673ffffffffffffffffffffffffffffffffffffffff168152602001908152602001600020905083816000018190555082816001018190555081816002018190555050505050565b600080fd5b600073ffffffffffffffffffffffffffffffffffffffff82169050919050565b600061029f82610274565b9050919050565b6102af81610294565b81146102ba57600080fd5b50565b6000813590506102cc816102a6565b92915050565b6000602082840312156102e8576102e761026f565b5b60006102f6848285016102bd565b91505092915050565b6000819050919050565b610312816102ff565b82525050565b600060608201905061032d6000830186610309565b61033a6020830185610309565b6103476040830184610309565b949350505050565b610358816102ff565b811461036357600080fd5b50565b6000813590506103758161034f565b92915050565b6000806000606084860312156103945761039361026f565b5b60006103a286828701610366565b93505060206103b386828701610366565b92505060406103c486828701610366565b9150509250925092565b600082825260208201905092915050565b7f437573746f6d6572204944206e6f7420666f756e640000000000000000000000600082015250565b60006104156015836103ce565b9150610420826103df565b602082019050919050565b6000602082019050818103600083015261044481610408565b9050919050565b7f437573746f6d6572204944206d7573742062652067726561746572207468616e60008201527f207a65726f000000000000000000000000000000000000000000000000000000602082015250565b60006104a76025836103ce565b91506104b28261044b565b604082019050919050565b600060208201905081810360008301526104d68161049a565b9050919050565b7f42696c6c20616d6f756e74206d7573742062652067726561746572207468616e60008201527f207a65726f000000000000000000000000000000000000000000000000000000602082015250565b60006105396025836103ce565b9150610544826104dd565b604082019050919050565b600060208201905081810360008301526105688161052c565b905091905056fea26469706673582212207c692c0e7961bac8fee57ff22d1195cb23ef25f3b39a1e22fd8a19116dbd0c0664736f6c63430008120033",
  "immutableReferences": {},
  "source": "// SPDX-License-Identifier: MIT\r\npragma solidity ^0.8.18;\r\n\r\ncontract Telecom {\r\n    struct Customer {\r\n        uint256 customerId;\r\n        uint256 lastBillDate;\r\n        uint256 lastBillAmount;\r\n    }\r\n\r\n    mapping(address => Customer) public customers;\r\n\r\n    // Function to submit a bill for a customer\r\n    function submitBill(uint256 _customerId, uint256 _billDate, uint256 _billAmount) public {\r\n        require(_customerId > 0, \"Customer ID must be greater than zero\");\r\n        require(_billAmount > 0, \"Bill amount must be greater than zero\");\r\n\r\n        Customer storage customer = customers[msg.sender];\r\n        customer.customerId = _customerId;\r\n        customer.lastBillDate = _billDate;\r\n        customer.lastBillAmount = _billAmount;\r\n    }\r\n\r\n    // Function to retrieve the customer's last bill date and amount\r\n    function getCustomerLastBill() public view returns (uint256 customerId, uint256 lastBillDate, uint256 lastBillAmount) {\r\n        Customer storage customer = customers[msg.sender];\r\n        require(customer.customerId > 0, \"Customer ID not found\");\r\n        return (customer.customerId, customer.lastBillDate, customer.lastBillAmount);\r\n    }\r\n}\r\n",
  "sourcePath": "D:\\Prasanth\\CCBC2\\611 - Adoption of Cloud Computing and Blockchain\\TelecomProject\\Telcom_GitRepo\\Tfq_GitRepo\\SmartContract\\contracts\\Tele.sol",
  "compiler": {
    "name": "solc",
    "version": "0.8.18+commit.87f61d96.Emscripten.clang"
  },
  "schemaVersion": "3.4.16",
  "updatedAt": "2023-11-16T02:28:01.647Z",
  "networkType": "ethereum",
  "devdoc": {
    "kind": "dev",
    "methods": {},
    "version": 1
  },
  "userdoc": {
    "kind": "user",
    "methods": {},
    "version": 1
  }
}