{
  "contractName": "telecom",
  "abi": [
    {
      "inputs": [
        {
          "internalType": "address",
          "name": "",
          "type": "address"
        }
      ],
      "name": "customers",
      "outputs": [
        {
          "internalType": "uint256",
          "name": "customerId",
          "type": "uint256"
        },
        {
          "internalType": "uint256",
          "name": "lastBillDate",
          "type": "uint256"
        },
        {
          "internalType": "uint256",
          "name": "lastBillAmount",
          "type": "uint256"
        }
      ],
      "stateMutability": "view",
      "type": "function",
      "constant": true
    },
    {
      "inputs": [
        {
          "internalType": "uint256",
          "name": "_customerId",
          "type": "uint256"
        },
        {
          "internalType": "uint256",
          "name": "_billDate",
          "type": "uint256"
        },
        {
          "internalType": "uint256",
          "name": "_billAmount",
          "type": "uint256"
        }
      ],
      "name": "submitBill",
      "outputs": [],
      "stateMutability": "nonpayable",
      "type": "function"
    },
    {
      "inputs": [],
      "name": "getCustomerLastBill",
      "outputs": [
        {
          "internalType": "uint256",
          "name": "customerId",
          "type": "uint256"
        },
        {
          "internalType": "uint256",
          "name": "lastBillDate",
          "type": "uint256"
        },
        {
          "internalType": "uint256",
          "name": "lastBillAmount",
          "type": "uint256"
        }
      ],
      "stateMutability": "view",
      "type": "function",
      "constant": true
    }
  ],
  "bytecode": "0x608060405234801561001057600080fd5b506104ec806100206000396000f3fe608060405234801561001057600080fd5b50600436106100415760003560e01c8063336989ae14610046578063be9e03c214610078578063dfacf7f014610098575b600080fd5b610060600480360381019061005b91906102ab565b6100b4565b60405161006f939291906102f1565b60405180910390f35b6100806100de565b60405161008f939291906102f1565b60405180910390f35b6100b260048036038101906100ad9190610354565b610186565b005b60006020528060005260406000206000915090508060000154908060010154908060020154905083565b6000806000806000803373ffffffffffffffffffffffffffffffffffffffff1673ffffffffffffffffffffffffffffffffffffffff1681526020019081526020016000209050600081600001541161016b576040517f08c379a000000000000000000000000000000000000000000000000000000000815260040161016290610404565b60405180910390fd5b80600001548160010154826002015493509350935050909192565b600081116101c9576040517f08c379a00000000000000000000000000000000000000000000000000000000081526004016101c090610496565b60405180910390fd5b6040518060600160405280848152602001838152602001828152506000803373ffffffffffffffffffffffffffffffffffffffff1673ffffffffffffffffffffffffffffffffffffffff168152602001908152602001600020600082015181600001556020820151816001015560408201518160020155905050505050565b600080fd5b600073ffffffffffffffffffffffffffffffffffffffff82169050919050565b60006102788261024d565b9050919050565b6102888161026d565b811461029357600080fd5b50565b6000813590506102a58161027f565b92915050565b6000602082840312156102c1576102c0610248565b5b60006102cf84828501610296565b91505092915050565b6000819050919050565b6102eb816102d8565b82525050565b600060608201905061030660008301866102e2565b61031360208301856102e2565b61032060408301846102e2565b949350505050565b610331816102d8565b811461033c57600080fd5b50565b60008135905061034e81610328565b92915050565b60008060006060848603121561036d5761036c610248565b5b600061037b8682870161033f565b935050602061038c8682870161033f565b925050604061039d8682870161033f565b9150509250925092565b600082825260208201905092915050565b7f437573746f6d6572204944206e6f7420666f756e640000000000000000000000600082015250565b60006103ee6015836103a7565b91506103f9826103b8565b602082019050919050565b6000602082019050818103600083015261041d816103e1565b9050919050565b7f42696c6c20616d6f756e74206d7573742062652067726561746572207468616e60008201527f207a65726f000000000000000000000000000000000000000000000000000000602082015250565b60006104806025836103a7565b915061048b82610424565b604082019050919050565b600060208201905081810360008301526104af81610473565b905091905056fea2646970667358221220e00ee6e8fdf9f353ed0be5e29f8af3dd9143cb79fa28e070c270c50a04e02f4b64736f6c63430008120033",
  "immutableReferences": {},
  "source": "// SPDX-License-Identifier: MIT\npragma solidity ^0.8.18;\n\ncontract telecom {\n    struct Customer {\n        uint256 customerId;\n        uint256 lastBillDate;\n        uint256 lastBillAmount;\n    }\n\n    mapping(address => Customer) public customers;\n\n    // Function to submit a bill for a customer\n    function submitBill(uint256 _customerId, uint256 _billDate, uint256 _billAmount) public {\n        require(_billAmount > 0, \"Bill amount must be greater than zero\");\n        customers[msg.sender] = Customer(_customerId, _billDate, _billAmount);\n    }\n\n    // Function to retrieve the customer's last bill date and amount\n    function getCustomerLastBill() public view returns (uint256 customerId, uint256 lastBillDate, uint256 lastBillAmount) {\n    Customer storage customer = customers[msg.sender];\n    require(customer.customerId > 0, \"Customer ID not found\");\n    return (customer.customerId, customer.lastBillDate, customer.lastBillAmount);\n    }\n\n}",
  "sourcePath": "D:\\Prasanth\\CCBC2\\611 - Adoption of Cloud Computing and Blockchain\\TelecomProject\\TelecomUsingLocal\\UsingRemix\\contracts\\telecom.sol",
  "compiler": {
    "name": "solc",
    "version": "0.8.18+commit.87f61d96.Emscripten.clang"
  },
  "schemaVersion": "3.4.16",
  "updatedAt": "2023-11-03T19:37:37.359Z",
  "networkType": "ethereum",
  "devdoc": {
    "kind": "dev",
    "methods": {},
    "version": 1
  },
  "userdoc": {
    "kind": "user",
    "methods": {},
    "version": 1
  }
}